{"abi":[{"type":"constructor","inputs":[{"name":"_trigger","type":"address","internalType":"address"}],"stateMutability":"nonpayable"},{"type":"function","name":"createJob","inputs":[{"name":"period","type":"uint256","internalType":"uint256"},{"name":"amount","type":"uint256","internalType":"uint256"},{"name":"recipient","type":"address","internalType":"address"},{"name":"token","type":"address","internalType":"address"}],"outputs":[],"stateMutability":"payable"},{"type":"function","name":"executeJob","inputs":[{"name":"_job_id","type":"uint256","internalType":"uint256"}],"outputs":[],"stateMutability":"nonpayable"},{"type":"function","name":"jobs","inputs":[{"name":"","type":"uint256","internalType":"uint256"}],"outputs":[{"name":"period","type":"uint256","internalType":"uint256"},{"name":"amount","type":"uint256","internalType":"uint256"},{"name":"lastExecution","type":"uint256","internalType":"uint256"},{"name":"sender","type":"address","internalType":"address"},{"name":"recipient","type":"address","internalType":"address"},{"name":"token","type":"address","internalType":"address"}],"stateMutability":"view"},{"type":"function","name":"removeJob","inputs":[{"name":"_job_id","type":"uint256","internalType":"uint256"}],"outputs":[{"name":"","type":"string","internalType":"string"}],"stateMutability":"nonpayable"},{"type":"function","name":"setTrigger","inputs":[{"name":"_trigger","type":"address","internalType":"address"}],"outputs":[],"stateMutability":"nonpayable"},{"type":"function","name":"trigger","inputs":[],"outputs":[{"name":"","type":"address","internalType":"address payable"}],"stateMutability":"view"},{"type":"event","name":"NextExecutionTimestamp","inputs":[{"name":"date","type":"uint256","indexed":false,"internalType":"uint256"},{"name":"job_id","type":"uint256","indexed":true,"internalType":"uint256"}],"anonymous":false},{"type":"error","name":"AddressEmptyCode","inputs":[{"name":"target","type":"address","internalType":"address"}]},{"type":"error","name":"FailedCall","inputs":[]},{"type":"error","name":"InsufficientBalance","inputs":[{"name":"balance","type":"uint256","internalType":"uint256"},{"name":"needed","type":"uint256","internalType":"uint256"}]},{"type":"error","name":"SafeERC20FailedOperation","inputs":[{"name":"token","type":"address","internalType":"address"}]}],"bytecode":{"object":"0x608060405234801561001057600080fd5b50604051610d04380380610d0483398101604081905261002f91610054565b600180546001600160a01b0319166001600160a01b0392909216919091179055610084565b60006020828403121561006657600080fd5b81516001600160a01b038116811461007d57600080fd5b9392505050565b610c71806100936000396000f3fe6080604052600436106100555760003560e01c8063180aedf31461005a57806333a2ed3b146100bb57806358838def146100dd5780636855b666146100fd5780637fec8d38146101105780639cb29cbd14610148575b600080fd5b34801561006657600080fd5b5061007a610075366004610ad9565b610175565b604080519687526020870195909552938501929092526001600160a01b03908116606085015290811660808401521660a082015260c0015b60405180910390f35b3480156100c757600080fd5b506100db6100d6366004610b0e565b6101cc565b005b3480156100e957600080fd5b506100db6100f8366004610ad9565b610242565b6100db61010b366004610b29565b6104d0565b34801561011c57600080fd5b50600154610130906001600160a01b031681565b6040516001600160a01b0390911681526020016100b2565b34801561015457600080fd5b50610168610163366004610ad9565b610711565b6040516100b29190610b93565b6000818154811061018557600080fd5b6000918252602090912060069091020180546001820154600283015460038401546004850154600590950154939550919390926001600160a01b0392831692918216911686565b6001546001600160a01b0316156102205760405162461bcd60e51b8152602060048201526013602482015272151c9a59d9d95c88185b1c9958591e481cd95d606a1b60448201526064015b60405180910390fd5b600180546001600160a01b0319166001600160a01b0392909216919091179055565b6001546001600160a01b031633146102b05760405162461bcd60e51b815260206004820152602b60248201527f4f6e6c792074686520636f70726f636573736f722063616e2063616c6c20746860448201526a34b990333ab731ba34b7b760a91b6064820152608401610217565b60008082815481106102c4576102c4610bc6565b60009182526020918290206040805160c08101825260069093029091018054835260018101549383019390935260028301549082015260038201546001600160a01b03908116606083018190526004840154821660808401526005909301541660a0820152915061036c5760405162461bcd60e51b8152602060048201526012602482015271129bd888191bd95cc81b9bdd08195e1a5cdd60721b6044820152606401610217565b8051604082015161037d9190610bdc565b4210156103be5760405162461bcd60e51b815260206004820152600f60248201526e129bd8881b9bdd08191d59481e595d608a1b6044820152606401610217565b6103da8160a001518260600151836080015184602001516108bb565b80516040820180516103ed908390610bdc565b905250600080548291908490811061040757610407610bc6565b6000918252602091829020835160069290920201908155908201516001820155604080830151600283015560608301516003830180546001600160a01b03199081166001600160a01b03938416179091556080850151600485018054831691841691909117905560a0909401516005909301805490941692169190911790915581519082015183917fd270de418848f07676c092e30c67a99070a18f01b8f573731322eadeea0c1ab8916104bb9190610bdc565b60405190815260200160405180910390a25050565b662386f26fc100003410156105275760405162461bcd60e51b815260206004820152601860248201527f4d696e696d756d20302e303120455448206e6f74206d657400000000000000006044820152606401610217565b600080546040805160c081018252878152602081018781524282840190815233606084019081526001600160a01b038981166080860190815289821660a087019081526001808a018b558a8052965160068a027f290decd9548b62a8d60345a988386fc84ba6bc95484008f6362f93160ef3e56381019190915595517f290decd9548b62a8d60345a988386fc84ba6bc95484008f6362f93160ef3e56487015593517f290decd9548b62a8d60345a988386fc84ba6bc95484008f6362f93160ef3e56586015591517f290decd9548b62a8d60345a988386fc84ba6bc95484008f6362f93160ef3e566850180549183166001600160a01b031992831617905591517f290decd9548b62a8d60345a988386fc84ba6bc95484008f6362f93160ef3e5678501805491831691841691909117905591517f290decd9548b62a8d60345a988386fc84ba6bc95484008f6362f93160ef3e568909301805493831693909116929092179091559054915192939116913480156108fc0292909190818181858888f193505050501580156106c0573d6000803e3d6000fd5b506106cd823385876108bb565b807fd270de418848f07676c092e30c67a99070a18f01b8f573731322eadeea0c1ab86106f98742610bdc565b60405190815260200160405180910390a25050505050565b6060600080838154811061072757610727610bc6565b60009182526020918290206040805160c08101825260069093029091018054835260018101549383019390935260028301549082015260038201546001600160a01b03908116606083018190526004840154821660808401526005909301541660a0820152915033146107e75760405162461bcd60e51b815260206004820152602260248201527f4f6e6c79207468652073656e6465722063616e2072656d6f766520746865206a60448201526137b160f11b6064820152608401610217565b600054831061082d5760405162461bcd60e51b8152602060048201526012602482015271129bd888191bd95cc81b9bdd08195e1a5cdd60721b6044820152606401610217565b6000838154811061084057610840610bc6565b6000918252602080832060069092029091018281556001810183905560028101929092556003820180546001600160a01b0319908116909155600483018054821690556005909201805490921690915560408051808201909152600b81526a129bd8881c995b5bdd995960aa1b918101919091529392505050565b836108c8818585856108cf565b5050505050565b604080516001600160a01b0385811660248301528416604482015260648082018490528251808303909101815260849091019091526020810180516001600160e01b03166323b872dd60e01b17905261092990859061092f565b50505050565b60006109446001600160a01b03841683610997565b905080516000141580156109695750808060200190518101906109679190610bfd565b155b1561099257604051635274afe760e01b81526001600160a01b0384166004820152602401610217565b505050565b60606109a5838360006109ae565b90505b92915050565b6060814710156109da5760405163cf47918160e01b815247600482015260248101839052604401610217565b600080856001600160a01b031684866040516109f69190610c1f565b60006040518083038185875af1925050503d8060008114610a33576040519150601f19603f3d011682016040523d82523d6000602084013e610a38565b606091505b5091509150610a48868383610a54565b925050505b9392505050565b606082610a6957610a6482610ab0565b610a4d565b8151158015610a8057506001600160a01b0384163b155b15610aa957604051639996b31560e01b81526001600160a01b0385166004820152602401610217565b5080610a4d565b805115610ac05780518082602001fd5b60405163d6bda27560e01b815260040160405180910390fd5b600060208284031215610aeb57600080fd5b5035919050565b80356001600160a01b0381168114610b0957600080fd5b919050565b600060208284031215610b2057600080fd5b6109a582610af2565b60008060008060808587031215610b3f57600080fd5b8435935060208501359250610b5660408601610af2565b9150610b6460608601610af2565b905092959194509250565b60005b83811015610b8a578181015183820152602001610b72565b50506000910152565b6020815260008251806020840152610bb2816040850160208701610b6f565b601f01601f19169190910160400192915050565b634e487b7160e01b600052603260045260246000fd5b808201808211156109a857634e487b7160e01b600052601160045260246000fd5b600060208284031215610c0f57600080fd5b81518015158114610a4d57600080fd5b60008251610c31818460208701610b6f565b919091019291505056fea2646970667358221220555f990d437ff584f3d0509a1d903a076322356642e39615fc50e029230d571264736f6c63430008140033","linkReferences":{}},"methodIdentifiers":{"createJob(uint256,uint256,address,address)":"6855b666","executeJob(uint256)":"58838def","jobs(uint256)":"180aedf3","removeJob(uint256)":"9cb29cbd","setTrigger(address)":"33a2ed3b","trigger()":"7fec8d38"},"id":1}