{"abi":[{"type":"constructor","inputs":[{"name":"_trigger","type":"address","internalType":"address"}],"stateMutability":"nonpayable"},{"type":"function","name":"createJob","inputs":[{"name":"period","type":"uint64","internalType":"uint64"},{"name":"totalNumberOfExecutions","type":"uint64","internalType":"uint64"},{"name":"amount","type":"uint128","internalType":"uint128"},{"name":"recipient","type":"address","internalType":"address"},{"name":"token","type":"address","internalType":"address"}],"outputs":[],"stateMutability":"payable"},{"type":"function","name":"executeJob","inputs":[{"name":"_job_id","type":"uint256","internalType":"uint256"}],"outputs":[],"stateMutability":"nonpayable"},{"type":"function","name":"jobs","inputs":[{"name":"","type":"uint256","internalType":"uint256"}],"outputs":[{"name":"period","type":"uint64","internalType":"uint64"},{"name":"numberOfRemainingExecutions","type":"uint64","internalType":"uint64"},{"name":"amount","type":"uint128","internalType":"uint128"},{"name":"lastExecution","type":"uint256","internalType":"uint256"},{"name":"sender","type":"address","internalType":"address"},{"name":"recipient","type":"address","internalType":"address"},{"name":"token","type":"address","internalType":"address"}],"stateMutability":"view"},{"type":"function","name":"jobsForAddress","inputs":[{"name":"","type":"address","internalType":"address"},{"name":"","type":"uint256","internalType":"uint256"}],"outputs":[{"name":"","type":"uint256","internalType":"uint256"}],"stateMutability":"view"},{"type":"function","name":"removeJob","inputs":[{"name":"_job_id","type":"uint256","internalType":"uint256"}],"outputs":[{"name":"","type":"string","internalType":"string"}],"stateMutability":"nonpayable"},{"type":"function","name":"setTrigger","inputs":[{"name":"_trigger","type":"address","internalType":"address"}],"outputs":[],"stateMutability":"nonpayable"},{"type":"function","name":"trigger","inputs":[],"outputs":[{"name":"","type":"address","internalType":"address payable"}],"stateMutability":"view"},{"type":"event","name":"NextExecutionTimestamp","inputs":[{"name":"date","type":"uint256","indexed":false,"internalType":"uint256"},{"name":"job_id","type":"uint256","indexed":true,"internalType":"uint256"}],"anonymous":false},{"type":"error","name":"AddressEmptyCode","inputs":[{"name":"target","type":"address","internalType":"address"}]},{"type":"error","name":"FailedCall","inputs":[]},{"type":"error","name":"InsufficientBalance","inputs":[{"name":"balance","type":"uint256","internalType":"uint256"},{"name":"needed","type":"uint256","internalType":"uint256"}]},{"type":"error","name":"SafeERC20FailedOperation","inputs":[{"name":"token","type":"address","internalType":"address"}]}],"bytecode":{"object":"0x608060405234801561001057600080fd5b50604051610ffb380380610ffb83398101604081905261002f91610054565b600280546001600160a01b0319166001600160a01b0392909216919091179055610084565b60006020828403121561006657600080fd5b81516001600160a01b038116811461007d57600080fd5b9392505050565b610f68806100936000396000f3fe6080604052600436106100705760003560e01c80637fec8d381161004e5780637fec8d38146101365780638a53d3401461016e5780639cb29cbd1461019c578063f3429b3b146101c957600080fd5b8063180aedf31461007557806333a2ed3b146100f457806358838def14610116575b600080fd5b34801561008157600080fd5b50610095610090366004610d08565b6101dc565b604080516001600160401b0398891681529790961660208801526001600160801b039094169486019490945260608501919091526001600160a01b03908116608085015291821660a08401521660c082015260e0015b60405180910390f35b34801561010057600080fd5b5061011461010f366004610d3d565b61024f565b005b34801561012257600080fd5b50610114610131366004610d08565b6102c5565b34801561014257600080fd5b50600254610156906001600160a01b031681565b6040516001600160a01b0390911681526020016100eb565b34801561017a57600080fd5b5061018e610189366004610d58565b610672565b6040519081526020016100eb565b3480156101a857600080fd5b506101bc6101b7366004610d08565b6106a3565b6040516100eb9190610da6565b6101146101d7366004610df0565b61086b565b600081815481106101ec57600080fd5b6000918252602090912060059091020180546001820154600283015460038401546004909401546001600160401b038085169650600160401b85041694600160801b9094046001600160801b0316936001600160a01b0392831692908116911687565b6002546001600160a01b0316156102a35760405162461bcd60e51b8152602060048201526013602482015272151c9a59d9d95c88185b1c9958591e481cd95d606a1b60448201526064015b60405180910390fd5b600280546001600160a01b0319166001600160a01b0392909216919091179055565b6002546001600160a01b031633146103335760405162461bcd60e51b815260206004820152602b60248201527f4f6e6c792074686520636f70726f636573736f722063616e2063616c6c20746860448201526a34b990333ab731ba34b7b760a91b606482015260840161029a565b600080828154811061034757610347610e63565b60009182526020918290206040805160e08101825260059390930290910180546001600160401b038082168552600160401b82041694840194909452600160801b9093046001600160801b0316908201526001820154606082015260028201546001600160a01b03908116608083018190526003840154821660a08401526004909301541660c082015291506104145760405162461bcd60e51b8152602060048201526012602482015271129bd888191bd95cc81b9bdd08195e1a5cdd60721b604482015260640161029a565b8051606082015161042e916001600160401b031690610e8f565b42101561046f5760405162461bcd60e51b815260206004820152600f60248201526e129bd8881b9bdd08191d59481e595d608a1b604482015260640161029a565b600081602001516001600160401b0316116104cc5760405162461bcd60e51b815260206004820152601f60248201527f4a6f6220686173206e6f2072656d61696e696e6720657865637574696f6e7300604482015260640161029a565b6104f18160c0015182608001518360a0015184604001516001600160801b0316610aea565b80600001516001600160401b0316816060018181516105109190610e8f565b90525060208101516001600160401b039081161461053e57600181602001516105399190610ea2565b610544565b80602001515b50806000838154811061055957610559610e63565b600091825260209182902083516005929092020180548484015160408601516001600160401b039485166001600160801b031990931692909217600160401b91851691909102176001600160801b03908116600160801b91909216021781556060840151600182015560808401516002820180546001600160a01b03199081166001600160a01b039384161790915560a0860151600384018054831691841691909117905560c09095015160049092018054909516911617909255820151161561066e57817fd270de418848f07676c092e30c67a99070a18f01b8f573731322eadeea0c1ab882600001516001600160401b0316836060015161065c9190610e8f565b60405190815260200160405180910390a25b5050565b6001602052816000526040600020818154811061068e57600080fd5b90600052602060002001600091509150505481565b606060008083815481106106b9576106b9610e63565b60009182526020918290206040805160e08101825260059390930290910180546001600160401b038082168552600160401b82041694840194909452600160801b9093046001600160801b0316908201526001820154606082015260028201546001600160a01b03908116608083018190526003840154821660a08401526004909301541660c08201529150331461079e5760405162461bcd60e51b815260206004820152602260248201527f4f6e6c79207468652073656e6465722063616e2072656d6f766520746865206a60448201526137b160f11b606482015260840161029a565b60005483106107e45760405162461bcd60e51b8152602060048201526012602482015271129bd888191bd95cc81b9bdd08195e1a5cdd60721b604482015260640161029a565b600083815481106107f7576107f7610e63565b60009182526020808320600590920290910182815560018101929092556002820180546001600160a01b0319908116909155600383018054821690556004909201805490921690915560408051808201909152600b81526a129bd8881c995b5bdd995960aa1b918101919091529392505050565b61087c84662386f26fc10000610ec9565b6001600160401b03163410156108ec5760405162461bcd60e51b815260206004820152602f60248201527f4d696e696d756d20666565206f6620302e30312078446169207065722072657060448201526e195d1a5d1a5bdb881b9bdd081b595d608a1b606482015260840161029a565b600080546040805160e081019091526001600160401b03808916825291929160208201908881161461092857610923600189610ea2565b610931565b6001600160401b035b6001600160401b0390811682526001600160801b03808916602080850191909152426040808601919091523360608087018290526001600160a01b038c81166080808a01919091528c821660a0998a01528a5460018181018d5560009c8d52878d208c5160059093020180548d8a01518e8a01518c16600160801b02908d16600160401b026001600160801b031990921694909c169390931792909217909816989098178855918901518787015590880151600280880180549284166001600160a01b03199384161790559789015160038801805491841691831691909117905560c090980151600490960180549682169690981695909517909655948652818152848620805492830181558652852001859055905491519116913480156108fc02929091818181858888f19350505050158015610a73573d6000803e3d6000fd5b50610a89823385876001600160801b0316610aea565b6001856001600160401b03161115610ae257807fd270de418848f07676c092e30c67a99070a18f01b8f573731322eadeea0c1ab8610ad06001600160401b03891642610e8f565b60405190815260200160405180910390a25b505050505050565b83610af781858585610afe565b5050505050565b604080516001600160a01b0385811660248301528416604482015260648082018490528251808303909101815260849091019091526020810180516001600160e01b03166323b872dd60e01b179052610b58908590610b5e565b50505050565b6000610b736001600160a01b03841683610bc6565b90508051600014158015610b98575080806020019051810190610b969190610ef4565b155b15610bc157604051635274afe760e01b81526001600160a01b038416600482015260240161029a565b505050565b6060610bd483836000610bdd565b90505b92915050565b606081471015610c095760405163cf47918160e01b81524760048201526024810183905260440161029a565b600080856001600160a01b03168486604051610c259190610f16565b60006040518083038185875af1925050503d8060008114610c62576040519150601f19603f3d011682016040523d82523d6000602084013e610c67565b606091505b5091509150610c77868383610c83565b925050505b9392505050565b606082610c9857610c9382610cdf565b610c7c565b8151158015610caf57506001600160a01b0384163b155b15610cd857604051639996b31560e01b81526001600160a01b038516600482015260240161029a565b5080610c7c565b805115610cef5780518082602001fd5b60405163d6bda27560e01b815260040160405180910390fd5b600060208284031215610d1a57600080fd5b5035919050565b80356001600160a01b0381168114610d3857600080fd5b919050565b600060208284031215610d4f57600080fd5b610bd482610d21565b60008060408385031215610d6b57600080fd5b610d7483610d21565b946020939093013593505050565b60005b83811015610d9d578181015183820152602001610d85565b50506000910152565b6020815260008251806020840152610dc5816040850160208701610d82565b601f01601f19169190910160400192915050565b80356001600160401b0381168114610d3857600080fd5b600080600080600060a08688031215610e0857600080fd5b610e1186610dd9565b9450610e1f60208701610dd9565b935060408601356001600160801b0381168114610e3b57600080fd5b9250610e4960608701610d21565b9150610e5760808701610d21565b90509295509295909350565b634e487b7160e01b600052603260045260246000fd5b634e487b7160e01b600052601160045260246000fd5b80820180821115610bd757610bd7610e79565b6001600160401b03828116828216039080821115610ec257610ec2610e79565b5092915050565b6001600160401b03818116838216028082169190828114610eec57610eec610e79565b505092915050565b600060208284031215610f0657600080fd5b81518015158114610c7c57600080fd5b60008251610f28818460208701610d82565b919091019291505056fea26469706673582212206836f0f136aa6984c0b777ceaf55d01cb0f1e52e8541d6299fb0e4610ce7431164736f6c63430008140033","linkReferences":{}},"methodIdentifiers":{"createJob(uint64,uint64,uint128,address,address)":"f3429b3b","executeJob(uint256)":"58838def","jobs(uint256)":"180aedf3","jobsForAddress(address,uint256)":"8a53d340","removeJob(uint256)":"9cb29cbd","setTrigger(address)":"33a2ed3b","trigger()":"7fec8d38"},"id":1}